:100000001DC037C036C035C034C033C032C031C067
:1000100030C02FC02EC02DC02CC02BC02AC029C07C
:1000200028C027C026C025C024C023C022C021C0AC
:1000300020C01FC01EC01DC01CC01BC011241FBE7D
:10004000CFEFD1E0DEBFCDBF11E0A0E0B1E0E6EA46
:10005000F3E002C005900D92AC37B107D9F711E07B
:10006000ACE7B1E001C01D92AC38B107E1F753D065
:1000700098C1C6CFCF93C82F8A3011F48DE0FADF34
:100080008091860085FFFCCFC0938000CF910895BA
:10009000CF93DF93A3E2B1E0E0E012962D913C9183
:1000A0001397821793072CF0EF5F1496E431A9F7AA
:1000B000E3E1F0E0DF01AA0FBB1FAA0FBB1FA15EA7
:1000C000BE4F1296CD91DC9113972D913C91EE0F7E
:1000D000FF1FEE0FFF1FED5DFE4F40815181BC0100
:1000E0006C1B7D0BCA01821B930B72D062817381E2
:1000F0006C1B7D0B7ED0620F731F882777FD809568
:10010000982FDF91CF91089589B92E9A2E99FECF1D
:1001100086B197B10895D59A80E091E090938901D6
:1001200080938801D09A1092820087E680938100A4
:1001300088E18093850086E080938400D89A85E8E2
:1001400085B918B8DD9A2FEF81EE94E021508040F8
:100150009040E1F700C0000083E0D6DFEC01609141
:100160008801709189018EE091E097D04AE050E0DB
:100170006CE771E0CE0164D06091880170918901D3
:100180008CE791E08AD060918801709189018CE1BF
:1001900091E083D0CE017CDFDC01CB014AE050E06E
:1001A0006CE771E04DD060918801709189018CE716
:1001B00091E073D081E291E099D0DD982FEF81EE4C
:1001C00094E0215080409040E1F700C00000BACF99
:1001D0000024552704C0080E591F880F991F009747
:1001E00029F076956795B8F37105B9F7802D952FAD
:1001F000089597FB072E16F4009406D077FD08D0DB
:100200000BD007FC05D03EF4909581959F4F089543
:10021000709561957F4F0895AA1BBB1B51E107C0E4
:10022000AA1FBB1FA617B70710F0A61BB70B881F86
:10023000991F5A95A9F780959095BC01CD01089515
:100240004532510518F4423008F004C0FB01108219
:10025000CB010895BB274A3031F4992322F4BDE243
:10026000909581959F4F01C0BB27FB015527AA2779
:10027000880F991FAA1FA41710F0A41B8395505133
:10028000B9F7A05DAA3308F0A95DA193009779F7AB
:10029000B111B1931192CB0159C0EF92FF920F931C
:1002A0001F93CF93DF93DB0113962C9121FF18C08E
:1002B0008B017C01D0E0C0E0F70181917F018823B0
:1002C00061F0D8011896ED91FC911997B801099544
:1002D000892B91F3DFEFCFEFEFCF8D2F9C2F02C053
:1002E0008FEF9FEFCDB7DEB7E6E04CC00F931F93C3
:1002F000CF93DF93E0918801F0918901238121FF61
:100300001BC08C01D0E0C0E0F80181918F016091A9
:10031000880170918901DB011896ED91FC91199784
:10032000882331F00995892B79F3DFEFCFEFECCFFC
:100330008AE00995892B19F08FEF9FEF02C08D2F6E
:100340009C2FDF91CF911F910F910895DC01FC014B
:10035000672F71917723E1F7329704C07C916D93F9
:1003600070836291AE17BF07C8F308952A88398851
:1003700048885F846E847D848C849B84AA84B9843D
:10038000C884DF80EE80FD800C811B81AA81B98149
:10039000CE0FD11D0FB6F894DEBF0FBECDBFED015D
:0603A0000895F894FFCF60
:1003A60000000002000000003A000000000054684F
:1003B60065726D6973746F72203D2000202D3E209A
:1003C600002E005203810020039200EE02A500BC1D
:1003D60002BA008A02D2005802EC0026020B01F48F
:1003E600012C01C2015101900178015E01A3012C8B
:1003F60001D001C8002F02FA00FF019600600264D6
:100406000090023200BF020000EC02CEFF15039CF2
:0C041600FF3C036AFF5E0338FF7C03001C
:00000001FF
